:100000000C945D000C9485000C9485000C94850084
:100010000C9485000C9485000C9485000C9485004C
:100020000C9485000C9485000C9485000C9485003C
:100030000C9485000C9485000C9485000C9485002C
:100040000C94F9020C9485000C9485000C948500A6
:100050000C9485000C9485000C9485000C9485000C
:100060000C9485000C94850000000008000201003B
:100070000003040700000000000000000000000072
:10008000250028002B0000000000240027002A0083
:10009000040404040404040402020202020203032E
:1000A0000303030301020408102040800102040836
:1000B00010200102040810200F0511241FBECFEFED
:1000C000D8E0DEBFCDBF21E0A4E4B1E001C01D92C5
:1000D000AB36B207E1F711E0A0E0B1E0ECEBFEE0F7
:1000E00002C005900D92A434B107D9F710E0CDE518
:1000F000D0E004C02197FE010E946405CC35D107F1
:10010000C9F70E9443030C945C070C94000090E034
:10011000FC01EC55FF4F249180579F4FFC018491C7
:10012000882399F090E0880F991FFC01EA57FF4F50
:10013000A591B491FC01E458FF4F859194918FB73C
:10014000F894EC91E22BEC938FBF08950895AF9251
:10015000BF92CF92DF92EF92FF920F931F93CF93B4
:10016000DF936C017B018B01040F151FEB015E0116
:10017000AE18BF08C017D10759F06991D601ED91AB
:10018000FC910190F081E02DC6010995892B79F74A
:10019000C501DF91CF911F910F91FF90EF90DF90FC
:1001A000CF90BF90AF90089590E0FC01E859FF4FC9
:1001B0002491FC01EC55FF4F3491FC01E057FF4FB7
:1001C000E491EE23C9F0222339F0233001F1A8F4A1
:1001D000213019F1223029F1F0E0EE0FFF1FE45831
:1001E000FF4FA591B4918FB7F894EC91611126C09F
:1001F00030953E233C938FBF08952730A9F02830D7
:10020000C9F0243049F7809180008F7D03C0809130
:1002100080008F7780938000DFCF84B58F7784BD97
:10022000DBCF84B58F7DFBCF8091B0008F7780933B
:10023000B000D2CF8091B0008F7DF9CF3E2BDACFC6
:100240003FB7F8948091490190914A01A0914B01E8
:10025000B0914C0126B5A89B05C02F3F19F001961F
:10026000A11DB11D3FBFBA2FA92F982F8827BC0110
:10027000CD01620F711D811D911D42E0660F771F38
:10028000881F991F4A95D1F7089590E080E008955E
:10029000CF93DF93EC0188819981009711F00E9440
:1002A0000606198218821D821C821B821A82DF9127
:1002B000CF910895FC0180819181009711F00C94F9
:1002C00006060895CF93DF93EC0160E08E810E94D3
:1002D000D40061E08E810E94D40060E08E810E9493
:1002E000D4008BE891E00197F1F7DF91CF91089569
:1002F000CF92DF92EF92FF920F931F93CF93DF93F2
:100300006C017C0187E0E80EF11CD0E0C0E0062F14
:1003100010E0B8010C2E02C0759567950A94E2F7BB
:100320006170F70181917F010E94D4002196C43051
:10033000D10579F7C601DF91CF911F910F91FF9001
:10034000EF90DF90CF900C946201CF92DF92EF920A
:10035000FF920F931F93CF93DF93EC01F62E642F40
:100360008C810E94D4008D818F3F19F060E00E9443
:10037000D4000F2D10E08F8584FF25C06E0187E02B
:10038000C80ED11CF12CE12CB8010E2C02C07595C1
:1003900067950A94E2F76170F60181916F010E94FE
:1003A000D400FFEFEF1AFF0A88E0E816F10461F7C6
:1003B000CE01DF91CF911F910F91FF90EF90DF90D1
:1003C000CF900C946201B80184E0759567958A9589
:1003D000E1F7CE010E9478016F2DCE01DF91CF9120
:1003E0001F910F91FF90EF90DF90CF900C947801C8
:1003F00040E0682F8FE491E00C94A501CF93DF9348
:10040000823029F490915E01986090935E01809310
:1004100062011092630180E48093640180E1809323
:10042000650180E580936601809153010E948700F9
:10043000809154018F3F11F00E94870080915501F7
:100440000E948700CFE4D1E09E012F54314080917B
:100450005E0184FD0AC084E090E0219628173907E8
:100460003CF48E810E948700EFCF88E090E0F5CFCA
:100470008BE39DE00197F1F760E0809153010E94CA
:10048000D40060E0809155010E94D4008091540115
:100490008F3F19F060E00E94D40080915E0184FDDE
:1004A00039C063E08FE491E00E947801CBE4D6E4A8
:1004B000CE010197F1F763E08FE491E00E947801AB
:1004C0002197F1F763E08FE491E00E94780183E5E2
:1004D00092E00197F1F762E08FE491E00E947801E9
:1004E00080915E0180620E94F80184E080935F0148
:1004F0008CE00E94F80181E00E94F8018BE39FE10B
:100500000197F1F782E08093600186E0DF91CF915F
:100510000C94F80180620E94F8018BE496E4019744
:10052000F1F780915E0180620E94F80183E592E01C
:100530000197F1F780915E0180620E94F801D0CFAF
:1005400041E00E94A50181E090E008950F931F9380
:10055000CF93DF93EC0188819981009759F02A812C
:100560003B812617370730F081E0DF91CF911F9153
:100570000F9108958B016F5F7F4F0E948F06009748
:1005800059F0998388831B830A832C813D81232B17
:1005900059F7FC011082E8CF80E0E7CFEF92FF929D
:1005A0000F931F93CF93DF93EC017B018A01BA0174
:1005B0000E94A60281110BC0CE010E944801CE010B
:1005C000DF91CF911F910F91FF90EF9008951D83C0
:1005D0000C83B701888199810E945507F0CFFB01F8
:1005E00001900020E9F73197AF01461B570B0C949F
:1005F000CE021F920F920FB60F9211242F933F93AA
:100600008F939F93AF93BF93809145019091460143
:10061000A0914701B09148013091440123E0230F9C
:100620002D3758F50196A11DB11D209344018093EB
:10063000450190934601A0934701B09348018091F2
:10064000490190914A01A0914B01B0914C01019652
:10065000A11DB11D8093490190934A01A0934B01C4
:10066000B0934C01BF91AF919F918F913F912F918A
:100670000F900FBE0F901F90189526E8230F02963B
:10068000A11DB11DD2CFCF93DF93CDB7DEB7689751
:100690000FB6F894DEBF0FBECDBF789484B58260EC
:1006A00084BD84B5816084BD85B5826085BD85B516
:1006B000816085BD80916E00816080936E00109294
:1006C000810080918100826080938100809181000F
:1006D00081608093810080918000816080938000A0
:1006E0008091B10084608093B1008091B0008160FE
:1006F0008093B00080917A00846080937A0080912A
:100700007A00826080937A0080917A008160809381
:100710007A0080917A00806880937A001092C100FC
:1007200082E00E94FE0190E0692E90E0792EE1E0E7
:10073000809162018111E0E0E195F0E0E15BFE4F24
:10074000848980680E94F80140E150E064E171E032
:100750008FE491E00E94A700E0916201E23008F08E
:1007600032C1E150F0E0E15BFE4F848980680E9475
:10077000F8011C8A1B8A1E8A1D8A188E1F8A4DE06A
:1007800050E065E271E0CE0143960E94CE021E86E3
:100790001D86188A1F861A8A198A63E471E0CE01C1
:1007A0000D960E94EF021A8219821C821B821E8201
:1007B0001D8263E371E0CE0101960E94EF02EB8897
:1007C000FC88E114F10409F400C10F89188D0115AA
:1007D0001105B9F08D819E81080F191FB801CE0156
:1007E00001960E94A602882309F4EFC029813A816C
:1007F0008D819E81B701820F931F0E9455071E8332
:100800000D830D811E81005F1F4FB801CE0101963F
:100810000E94A6028111DEC0CE0101960E9448010D
:1008200018861F821A8619861C861B8669817A8122
:100830006115710531F04D815E81CE0107960E94F0
:10084000CE02CE0101960E945A01C0904D01D09077
:100850004E01560100910001109101014801C0169E
:10086000D10610F0580146011A8219821C821B829F
:100870001E821D8263E471E0CE0101960E94EF02A8
:10088000EB84FC84AE14BF0420F58E149F0408F49E
:100890007401EF81F885EE0DFF1D908010826F814D
:1008A00078856A0D7B1D6115710509F4A0C0FB01F7
:1008B00001900020E9F73197AF01461B570BCE019D
:1008C00001960E94CE028F819885E80EF91EF701ED
:1008D00090828D859E85009709F490C069817A8108
:1008E0006115710509F488C04F8558892D813E81B5
:1008F0004217530708F480C00E9455078D819E81DE
:100900009A8B898B1E821D82CE0101960E945A010C
:100910000F5F1F4F1093010100930001FFEFCF1AEB
:10092000DF0AD0924E01C0924D018B859C858017C5
:10093000910750F480E190E09093010180930001D1
:1009400010924E0110924D01CE0107960E945A015D
:1009500049895A896D857E858FE491E00E94A700C0
:10096000CE010D960E945A01CE0143960E945A0173
:100970000E9420016B017C0180E5882E912CA12C26
:10098000B12C0E9420016C197D098E099F09683ED7
:10099000734081059105A8F321E0821A9108A1080E
:1009A000B10888EEC80E83E0D81EE11CF11C81144A
:1009B0009104A104B10429F76114710409F4B7CEBC
:1009C0000E940000B4CEE1E0CDCECE0101960E949F
:1009D000480117CF29813A818D819E8163E371E0BF
:1009E000820F931F0E9455071E830D8319CFCE01DE
:1009F00001960E94480167CF0E94060689819A816C
:100A00009E878D878B819C81988B8F878D819E811E
:100A10009A8B898B1A8219821C821B8273CFEFE416
:100A2000F1E0138212828CE091E0918380838CE06C
:100A300084838FEF85838BE0868385E0878384E0E2
:100A4000808783E0818782E08287138614861586FB
:100A50001686178681E00C94FE012F923F924F92EA
:100A60005F926F927F928F929F92AF92BF92CF923E
:100A7000DF92EF92FF920F931F93CF93DF93CDB747
:100A8000DEB7CA1BDB0B0FB6F894DEBF0FBECDBFBF
:100A900009942A88398848885F846E847D848C8490
:100AA0009B84AA84B984C884DF80EE80FD800C8199
:100AB0001B81AA81B981CE0FD11D0FB6F894DEBF7C
:100AC0000FBECDBFED010895EE0FFF1F0590F4910D
:100AD000E02D09940F931F93CF93DF9382309105FC
:100AE00010F482E090E0E0916901F0916A0130E059
:100AF00020E0B0E0A0E0309799F42115310509F429
:100B00004AC0281B390B24303105D8F58A819B81D6
:100B10006115710589F1FB0193838283FE0111C088
:100B2000408151810281138148175907E0F048172D
:100B3000590799F4109761F012960C931297139637
:100B40001C933296CF01DF91CF911F910F910895A1
:100B50000093690110936A01F4CF2115310551F01A
:100B60004217530738F0A901DB019A01BD01DF01EB
:100B7000F801C1CFEF01F9CF90936A018093690129
:100B8000CDCFFE01E20FF31F8193919322503109E3
:100B900039832883D7CF2091670130916801232BB7
:100BA00041F42091040130910501309368012093B4
:100BB000670120910201309103012115310541F4B3
:100BC0002DB73EB74091060150910701241B350B0C
:100BD000E0916701F0916801E217F307A0F42E1B82
:100BE0003F0B2817390778F0AC014E5F5F4F241791
:100BF000350748F04E0F5F1F50936801409367011F
:100C0000819391939FCFF0E0E0E09CCFCF93DF936F
:100C10000097E9F0FC01329713821282A0916901DA
:100C2000B0916A01ED0130E020E01097A1F420813D
:100C30003181820F931F209167013091680128173D
:100C4000390709F061C0F0936801E0936701DF9113
:100C5000CF910895EA01CE17DF07E8F54A815B815D
:100C60009E0141155105B1F7E901FB83EA834991E2
:100C70005991C40FD51FEC17FD0761F48081918154
:100C80000296840F951FE90199838883828193815D
:100C90009B838A83F0E0E0E012968D919C911397FC
:100CA0000097B9F52D913C911197CD010296820FD5
:100CB000931F20916701309168012817390739F691
:100CC000309751F510926A0110926901B093680152
:100CD000A0936701BCCFD383C28340815181840F2D
:100CE000951FC817D90761F44E5F5F4F88819981BE
:100CF000480F591F518340838A819B81938382834C
:100D00002115310509F0B0CFF0936A01E093690134
:100D10009ECFFD01DC01C0CF13821282D7CFB0E09D
:100D2000A0E0E5E9F6E00C942F058C01009751F462
:100D3000CB010E946A058C01C801CDB7DEB7E0E1A6
:100D40000C944B05FC01E60FF71F9C012250310962
:100D5000E217F30708F49DC0D901CD91DC911197FA
:100D6000C617D70798F0C530D10530F3CE010497E8
:100D70008617970708F3C61BD70B2297C193D19309
:100D80006D937C93CF010E940606D6CF5B01AC1A0F
:100D9000BD0A4C018C0E9D1EA0916901B0916A01A3
:100DA000512C412CF12CE12C109731F580916701E9
:100DB000909168018815990509F05CC046165706A0
:100DC00008F058C08091020190910301009741F40E
:100DD0008DB79EB74091060150910701841B950B7A
:100DE000E817F90708F055C0F0936801E093670130
:100DF000F90171836083A0CF8D919C911197129618
:100E00006C90129713967C901397A815B90559F515
:100E10006C0142E0C40ED11CCA14DB0420F1AC0109
:100E20004A195B09DA011296159780F06282738283
:100E300051834083D9016D937C93E114F10471F0E7
:100E4000D7011396FC93EE93129776CF22968C0FD0
:100E50009D1FF90191838083F301EFCFF0936A0125
:100E6000E093690169CF4816590608F42C017D0109
:100E7000D3019ACFCB010E946A057C01009749F00B
:100E8000AE01B8010E944C07C8010E940606870106
:100E900053CF10E000E050CFFB01DC0102C0019015
:100EA0000D9241505040D8F70895FB01DC010190AC
:0C0EB0000D920020E1F70895F894FFCFA8
:100EBC00100000006B01800000000000A002A700E1
:100ECC004501A60020202020313932303035333610
:100EDC002020202000464554454C202D2048434DD1
:100EEC0055530020202020202020202020202020AE
:040EFC002020200092
:00000001FF
